:100000000C9434000C9451000C9451000C94510049
:100010000C9451000C9451000C9451000C9451001C
:100020000C9451000C9451000C9451000C947102EA
:100030000C9451000C9451000C9451000C945100FC
:100040000C9451000C9451000C9451000C945100EC
:100050000C9451000C9451000C9451000C945100DC
:100060000C9451000C94510011241FBECFEFD8E026
:10007000DEBFCDBF11E0A0E0B1E0E0ECF6E102C0F0
:1000800005900D92A838B107D9F721E0A8E8B1E0B2
:1000900001C01D92A839B207E1F70E94A9020C9491
:1000A0005E0B0C94000080917C00807F80937C002C
:1000B00080917A00806480937A0080917A0086FD36
:1000C000FCCF8091780090917900089595B121E05E
:1000D00030E001C0220F8A95EAF7922B95B9089576
:1000E00095B121E030E001C0220F8A95EAF7209512
:1000F000292325B908958F929F92AF92BF92CF92F4
:10010000DF92EF92FF921F93CF93DF93CDB7DEB7CD
:1001100060970FB6F894DEBF0FBECDBF69017A01BC
:100120001FB7F8949B01AC0160E074E284E799E4A6
:100130000E9419060E948B066D837E838F839887A9
:10014000A8EEB3E0A70196010E94470769877A8766
:100150008B879C8719821A821B821C8284E1C82E9D
:10016000D12CE12CF12C69857A858B859C852D819C
:100170003E814F81588589809A80AB80BC800E94E7
:100180001F0782169306A406B50698F01FBF609657
:100190000FB6F894DEBF0FBECDBFDF91CF911F9198
:1001A000FF90EF90DF90CF90BF90AF909F908F9097
:1001B00008955B98188A1F868F8498886D817E8148
:1001C0008F819885B12CA12CA70196010E941F0751
:1001D00082169306A406B50600F15B9A1E861D865C
:1001E0008D849E846D817E818F819885B12CA12C18
:1001F000A70196010E941F0782169306A406B50662
:10020000B0F089819A81AB81BC810196A11DB11D9D
:1002100089839A83AB83BC83A6CF85E38A95F1F764
:1002200000008F8598890196988B8F87C5CF85E3CD
:100230008A95F1F700008D859E8501969E878D87B2
:10024000CFCF27E030E090E0AC01022E02C0559500
:1002500047950A94E2F740FF0FC0289A5F9A45E05D
:100260004A95F1F700005F9845E04A95F1F70000E4
:100270002150310948F708952898F0CF0F931F9324
:10028000CF93DF93C5E0D1E00DE311E05C98899155
:100290000E942101F80181918F010E9421015C9A45
:1002A0008FE99FE00197F1F700C0000091E0C930AD
:1002B000D90761F7DF91CF911F910F910895AF9208
:1002C000BF92CF92DF92EF92FF920F931F93CF9343
:1002D000DF93CDB7DEB729970FB6F894DEBF0FBE18
:1002E000CDBFE0919201F0919301309721F11382FB
:1002F00011E081E4E82E81E0F82ECE0101966C0138
:1003000094EBA92EB12C09E090910301911720F5EF
:1003100080910401981778F0882369F0E0919201A8
:10032000F091930181508483309729F0938189174C
:1003300010F481E0858329960FB6F894DEBF0FBED6
:10034000CDBFDF91CF911F910F91FF90EF90DF9084
:10035000CF90BF90AF9008951F921F93FF92EF929E
:10036000DF92CF920E9486081E83B886AF820F90DC
:100370000F900F900F900F900F9080919101882314
:1003800021F081E090910401911380E089878091B0
:10039000920190919301FC0123813281231780F413
:1003A000A081B181209FA00DB11D1124F601202F45
:1003B00001900D922A95E1F7FC0123812F5F2383A1
:1003C0001F5FA2CFDC01FC0101900020E9F7AF0123
:1003D00041505109481B590B9FEF90930501909391
:1003E0000601909307019093080130E020E08FEF21
:1003F0004217530719F02430310509F40895ED919F
:1004000090ED9E0F9A3068F40E2E000CFF0BED5FFE
:10041000FE4F9081F901EB5FFE4F90832F5F3F4FBE
:10042000E7CF9FEB9E0F9A3130F40E2E000CFF0B9E
:10043000E852FF4FEECF9FE99E0F9A3130F40E2E17
:10044000000CFF0BE854FF4FE4CFE03239F7F9011D
:10045000EB5FFE4F8083E2CF0F931F93CF93DF9329
:100460008B010E94E201D0E0C0E00E943E01219693
:100470000C171D07D1F780919101882341F088E482
:1004800091E0DF91CF911F910F910C94E2018DE4E7
:1004900091E0F7CFCF93DF9300D000D01F92CDB77C
:1004A000DEB79091C00095FFFCCF8093C60093E02B
:1004B000EFE0F1E0DE01119601900D929A95E1F7DF
:1004C0001D821C828A8362E370E0CE0101960E9445
:1004D0002C020F900F900F900F900F90DF91CF9103
:1004E00008951F920F920FB60F9211245F936F938E
:1004F0007F938F939F93AF93BF9380918801909147
:1005000089010196909389018093880180918801E7
:100510009091890164EF71E00E940B07892B69F4C7
:10052000809188019091890160ED77E00E940B072E
:10053000892B19F481E080939001BF91AF919F9135
:100540008F917F916F915F910F900FBE0F901F90D1
:100550001895CF93DF9300D000D01F92CDB7DEB7B0
:10056000539A5B9A84B18C6384B985B18C6385B9E5
:100570008AB180698AB9209A87B1817F87B988B1A9
:100580008E6088B910928A013898409880E48093F0
:100590007C0087E880937A000E94530090938C013E
:1005A00080938B0110928D0110928F0110928E0119
:1005B0001092C50087E68093C40088E18093C10053
:1005C00086E08093C2001092910181E08093040143
:1005D00080930301809181008860809381008091E5
:1005E00081008560809381008FE090E09093890086
:1005F0008093880080916F00826080936F0082E01A
:100600000E94700083E00E94700084E00E947000ED
:1006100085E00E94700082E00E94660083E00E94F4
:10062000660084E00E94660085E00E9466006CE23D
:1006300071E082E591E00E942C02539A5B9A2FEFC1
:1006400033EC89E0215030408040E1F700C00000E9
:1006500026E930E040E050E060E070ED82E094E4B4
:100660000E947B009FEFA0E7B2E09150A040B04015
:10067000E1F700C0000026E930E040E050E060E033
:1006800070ED84E294E40E947B00EFEFF0E722E05B
:10069000E150F0402040E1F700C0000026E930E0E2
:1006A00040E050E06CE57FEF83E494E40E947B003F
:1006B0003FEF80E792E0315080409040E1F700C08A
:1006C000000028EC30E040E050E060E070ED82E8AF
:1006D00094E40E947B0086E090E00E9461077C0128
:1006E000892B79F084EB90E00E946107D7018D930C
:1006F0009C93892B09F073C0C7010E94FD07F12C60
:10070000E12CF0929301E09292018DE491E00E943D
:10071000E20181E50E944A02789422E3222E3324EA
:10072000339438EE432E33E0532E4BE6642E41E0F3
:10073000742E8E010F5F1F4F51E4C52E51E0D52E50
:100740006BE7A62E61E0B62E0E943E0180918A01E1
:10075000882309F44BC0815080938A0180918E01D7
:1007600090918F01009709F4B6C0019790938F0183
:1007700080938E018091C00087FF2EC18091C000C0
:1007800087FFFCCF8091C600EEEBE80FE13208F066
:1007900041C2F0E0E253FC4F0C944107C6056F05DF
:1007A00061050A06F7050A060A060A060A060A0687
:1007B0000A060A0696050A06CF040306FE052D055D
:1007C00049050A068D050A060A060A060A060A06E9
:1007D0000A060A060A060A060A060A06E90584E166
:1007E000F70182831382148215828BCF86B181FB3D
:1007F000992490F881FD18C0809102018130A1F404
:1008000080919101882309F45EC083E50E944A0229
:1008100064E670E087E591E00E942C0285B1F4E087
:100820008F2785B920928A019092020186B182FBBE
:10083000992490F882FD1EC0809101018130D1F48D
:100840008EE40E944A0264E670E081E691E00E9434
:100850002C0283E00E9470002FEF31EE84E02150E3
:1008600030408040E1F700C0000083E00E94660055
:1008700020928A019092010186B183FB992490F81D
:1008800083FD1EC0809100018130D1F482E40E947A
:100890004A0264E670E086E691E00E942C0283E062
:1008A0000E9470009FEFA1EEB4E09150A040B040D4
:1008B000E1F700C0000083E00E94660020928A01F8
:1008C000909200014BCF80E50E944A0264E670E0FE
:1008D0008CE591E0A1CF0E9453004C0180918D01E5
:1008E00081111EC090928C0180928B0130928D01FB
:1008F000C401B2010E940B079F938F937F926F9266
:100900001F930F930E9486086CE271E0C8010E9459
:100910002C020F900F900F900F900F900F902ACFF6
:1009200080918B0190918C01F401E81BF90BCF01B0
:100930009F01F7FF04C0222733272E1B3F0B2A30CD
:1009400031050CF417CF181619060CF586E40E9431
:100950004A0264E670E081E791E00E942C029092E6
:100960008C0180928B0184E690E090938F018093BC
:100970008E0184E00E9470009EE1992E0E943E014B
:100980009A949110FBCF84E00E946600F3CE82E53A
:100990000E944A0264E670E086E791E0DECF309282
:1009A0009101E0919201F0919301309771F0838170
:1009B000882359F08481A081B18129E0829FA00D14
:1009C000B11D112418963C92358282E00E9470007D
:1009D00088E491E00E94E20180919001882389F0EF
:1009E0001092900185E00E94700089E1AFE9BFE0BC
:1009F0001197F1F700C000008150C1F785E00E9417
:100A00006600E114F10409F49FCEF7018581882383
:100A100009F49ACE15828381882309F495CE8481C6
:100A20000190F081E02D29E0829FE00DF11D11245D
:100A300085811F928F93DF92CF921F930F930E9415
:100A4000860868EC70E0C8010E942C020F900F909D
:100A50000F900F900F900F9077CE10929101E09130
:100A60009201F0919301309771F08381882359F0BE
:100A70008481A081B18139E0839FA00DB11D112433
:100A800018961C92358282E00E9466008DE491E007
:100A9000A1CF809103018F5F843688F48093030196
:100AA0000E945F01809103011F928F93BF92AF92CA
:100AB0001F930F930E94860868EC70E02AC083E6BB
:100AC000EDCF80910301823068F381508093030160
:100AD00090910401891720F780930401E1CF809160
:100AE000040190910301891720F48F5F8093040122
:100AF00002C0309204010E945F01809104011F92A4
:100B00008F93DF92CF921F930F930E9486086CE21F
:100B100071E0C8010E942C022FC080910401823034
:100B200010F08150E3CF80910301E0CF8091040168
:100B300090910301891738F58F5F809304010E941B
:100B40005F01809104011F928F93DF92CF921F93D8
:100B50000F930E9486086CE271E0C8010E942C028B
:100B60009FEFA1EEB4E09150A040B040E1F700C08B
:100B7000000081E50E944A020F900F900F900F90A5
:100B80000F900F9029CF30920401D9CF80910401AA
:100B90008230E0F08150809304010E945F018091D7
:100BA00004011F928F93DF92CF921F930F930E94A5
:100BB00086086CE271E0C8010E942C02EFEFF1EEB2
:100BC00024E0E150F0402040E1F7D1CF80910301D3
:100BD000E2CF85E00E94700082E3982E0E943E01E1
:100BE0009A949110FBCF85E00E946600F5CE64E6F2
:100BF00070E081E891E00E942C02EECE64E670E0A5
:100C000084E891E0F8CF809104011F928F93DF92E6
:100C1000CF924ECF93E0E4E1F1E0D80101900D9244
:100C20009A95E1F71D821C828A8364E670E0C80110
:100C3000E2CF0E942D060C94D1060E94CA0658F0FD
:100C40000E94C30640F029F45F3F29F00C94BA06D5
:100C500051110C9405070C94C0060E94E20668F33B
:100C60009923B1F3552391F3951B550BBB27AA2765
:100C700062177307840738F09F5F5F4F220F331F9F
:100C8000441FAA1FA9F335D00E2E3AF0E0E832D067
:100C900091505040E695001CCAF72BD0FE2F29D06A
:100CA000660F771F881FBB1F261737074807AB073C
:100CB000B0E809F0BB0B802DBF01FF2793585F4FB1
:100CC0003AF09E3F510578F00C94BA060C94050753
:100CD0005F3FE4F3983ED4F3869577956795B79593
:100CE000F7959F5FC9F7880F911D9695879597F99E
:100CF0000895E1E0660F771F881FBB1F6217730717
:100D00008407BA0720F0621B730B840BBA0BEE1F2B
:100D100088F7E09508950E94EA0688F09F5798F0BA
:100D2000B92F9927B751B0F0E1F0660F771F881FF0
:100D3000991F1AF0BA95C9F714C0B13091F00E940A
:100D40000407B1E008950C940407672F782F8827D3
:100D5000B85F39F0B93FCCF3869577956795B39531
:100D6000D9F73EF490958095709561957F4F8F4FA0
:100D70009F4F089597F99F6780E870E060E00895BD
:100D80009FEF80EC089500240A94161617061806A3
:100D90000906089500240A9412161306140605067F
:100DA0000895092E0394000C11F4882352F0BB0F10
:100DB00040F4BF2B11F460FF04C06F5F7F4F8F4F73
:100DC0009F4F089557FD9058440F551F59F05F3FAE
:100DD00071F04795880F97FB991F61F09F3F79F05D
:100DE00087950895121613061406551FF2CF4695DF
:100DF000F1DF08C0161617061806991FF1CF869561
:100E00007105610508940895E894BB276627772744
:100E1000CB0197F90895AA1BBB1B51E107C0AA1F7C
:100E2000BB1FA617B70710F0A61BB70B881F991F8B
:100E30005A95A9F780959095BC01CD010895A1E23E
:100E40001A2EAA1BBB1BFD010DC0AA1FBB1FEE1F44
:100E5000FF1FA217B307E407F50720F0A21BB30B8F
:100E6000E40BF50B661F771F881F991F1A9469F70B
:100E700060957095809590959B01AC01BD01CF0167
:100E80000895EE0FFF1F0590F491E02D09940E9444
:100E90005207A59F900DB49F900DA49F800D911DAA
:100EA00011240895A29FB001B39FC001A39F700DAC
:100EB000811D1124911DB29F700D811D1124911D62
:100EC00008950F931F93CF93DF938230910510F411
:100ED00082E090E0E0919601F091970130E020E00F
:100EE000B0E0A0E0309799F42115310509F44AC02B
:100EF000281B390B24303105D8F58A819B81611577
:100F0000710589F1FB0193838283FE0111C0408149
:100F100051810281138148175907E0F0481759079A
:100F200099F4109761F012960C93129713961C93F4
:100F30003296CF01DF91CF911F910F9108950093C9
:100F4000960110939701F4CF2115310551F0421706
:100F5000530738F0A901DB019A01BD01DF01F80157
:100F6000C1CFEF01F9CF9093970180939601CDCF38
:100F7000FE01E20FF31F81939193225031093983CF
:100F80002883D7CF2091940130919501232B41F4F0
:100F900020910B0130910C01309395012093940125
:100FA0002091090130910A012115310541F42DB735
:100FB0003EB740910D0150910E01241B350BE0917D
:100FC0009401F0919501E217F307A0F42E1B3F0B5B
:100FD0002817390778F0AC014E5F5F4F24173507AB
:100FE00048F04E0F5F1F50939501409394018193F9
:100FF00091939FCFF0E0E0E09CCFCF93DF930097F9
:10100000E9F0FC01329713821282A0919601B0910F
:101010009701ED0130E020E01097A1F420813181AB
:10102000820F931F20919401309195012817390761
:1010300009F061C0F0939501E0939401DF91CF91A5
:101040000895EA01CE17DF07E8F54A815B819E012A
:1010500041155105B1F7E901FB83EA8349915991A3
:10106000C40FD51FEC17FD0761F4808191810296B2
:10107000840F951FE90199838883828193819B83E3
:101080008A83F0E0E0E012968D919C91139700978F
:10109000B9F52D913C911197CD010296820F931FC6
:1010A00020919401309195012817390739F630972E
:1010B00051F51092970110929601B0939501A0936B
:1010C0009401BCCFD383C28340815181840F951F8B
:1010D000C817D90761F44E5F5F4F88819981480F27
:1010E000591F518340838A819B8193838283211579
:1010F000310509F0B0CFF0939701E09396019ECFB0
:10110000FD01DC01C0CF13821282D7CFAEE0B0E088
:10111000ECE8F8E00C94350B0D891E8986E08C8391
:101120001A8309838FEF9FE79E838D83AE01475E0D
:101130005F4F6F89788DCE0101960E94A9082F819B
:101140003885020F131FF80110822E96E4E00C94EC
:10115000510BABE0B0E0EFEAF8E00C94270B7C0118
:101160003B018A01FC0117821682838181FFC8C17D
:10117000CE0101965C01F7019381F30193FD859106
:1011800093FF81913F01882309F453C1853239F4DB
:1011900093FD859193FF81913F01853229F4B70139
:1011A00090E00E94990AE7CF912C212C312CFFE18D
:1011B000F31538F08B3211F190F4803209F183325B
:1011C00029F137FC3CC020ED280F2A3050F536FEBF
:1011D00020C08AE0989E200D1124922E06C08D32E8
:1011E00091F0803371F7689430F8F30193FD8591A5
:1011F00093FF81913F018111DACF21C0689431F8CA
:10120000689432F8F2CF689433F8EFCF689434F8EA
:10121000ECCFEAE02E9E200D1124222E689435F8A2
:10122000E4CF8E3229F436FC04C1689436F8DDCF61
:101230008C3619F4689437F8D8CF8836B1F2982FE5
:101240009F7D95549330E0F08336A1F18337C1F14F
:10125000833509F063C02801F2E04F0E511CF801FC
:10126000C080D180692D70E036FC02C06FEF7FEF47
:10127000C6010E94830A4C01689437F882010AC0B3
:101280000C5F1F4FFFE3F98388248394912C650141
:10129000E89437F833FE2DC0522C8114910471F577
:1012A000552009F468CFB70180E290E00E94990AC6
:1012B0005A94F6CFF801808189830E5F1F4FE4CFE7
:1012C0002801F2E04F0E511CF801C080D180692D39
:1012D00070E036FC02C06FEF7FEFC6010E948E0AFD
:1012E0004C018201D5CFB70180E290E00E94990ABB
:1012F0002A942814190409F0B0F7CECFF60137FC70
:10130000859137FE81916F01B70190E00E94990AA3
:1013100051105A94F1E08F1A9108BFCF843619F01A
:10132000893609F077C0F80137FE6BC060817181A2
:10133000828193810C5F1F4FF32DFF763F2E97FF25
:1013400009C090958095709561957F4F8F4F9F4F05
:10135000689437F82AE030E0A5010E94C90AC82E37
:10136000CA188C2C432C36FE0CC0E89440F8C914E3
:1013700040F434FE05C032FC03C0F32DFE7E4F2E38
:10138000892C44FE95C0FE01EC0DF11D8081803357
:1013900009F087C0242D297E422E842D8870582E76
:1013A00043FC95C040FE8FC09C2C821418F42C0C7A
:1013B000922C981844FE91C0B70180E390E00E94FF
:1013C000990A42FE09C088E790E041FE02C088E524
:1013D00090E0B7010E94990AC91408F48AC0CA941F
:1013E000D12C9FEFC91AD90ACA0CDB1CF6018291D5
:1013F0006F01B70190E00E94990AAC14BD04B1F7E7
:101400004FCF60817181072E000C880B990B0E5F06
:101410001F4F92CFD32CE894D4F82AE030E08537E0
:1014200039F1232D297FD22E8F3601F148F48835EA
:10143000A9F0F701868197812B96E2E10C94430B8A
:10144000803749F08837A9F7D4FE02C06894D2F8F3
:1014500020E130E00DC06894D4F8F6CF34FE03C02C
:10146000822F8660D82E20E132E002C028E030E0F2
:10147000F801D7FE0FC060817181828193810C5F7A
:101480001F4FA5010E94C90AC82ECA183D2CE89416
:1014900037F867CF6081718190E080E00E5F1F4F69
:1014A000F0CF42FC02C0839478CF8394839475CFAD
:1014B000842D867809F471CFF6CFB70180E290E0F1
:1014C0000E94990A83948214C0F3512C73CF522C3A
:1014D0005818821408F46ECFF8CF842D867809F45A
:1014E0007BCF8BE241FE80E247FC8DE2B70190E0CA
:1014F00071CFB70180E390E00E94990A9A946CCF73
:101500008FEF9FEF99CFFC01059061507040011063
:10151000D8F7809590958E0F9F1F0895FC0161501C
:10152000704001900110D8F7809590958E0F9F1F05
:1015300008950F931F93CF93DF93182F092FEB017B
:101540008B8181FD09C01FEF0FEF812F902FDF915D
:10155000CF911F910F91089582FF14C02E813F817A
:101560008C819D81281739073CF4E881F981CF01EE
:1015700001969983888310838E819F8101969F8332
:101580008E83E3CFE885F985812F0995892BA1F317
:10159000DACFFA01AA27283051F1203181F1E894FD
:1015A0006F936E7F6E5F7F4F8F4F9F4FAF4FB1E056
:1015B0003ED0B4E03CD0670F781F891F9A1FA11D51
:1015C000680F791F8A1F911DA11D6A0F711D811D52
:1015D000911DA11D20D009F468943F912AE0269F17
:1015E00011243019305D3193DEF6CF010895462F76
:1015F0004770405D4193B3E00FD0C9F7F6CF462F57
:101600004F70405D4A3318F0495D31FD40524193BF
:1016100002D0A9F7EACFB4E0A6959795879577957C
:101620006795BA95C9F700976105710508959B0103
:10163000AC010A2E06945795479537952795BA958C
:10164000C9F7620F731F841F951FA01D08952F9265
:101650003F924F925F926F927F928F929F92AF9242
:10166000BF92CF92DF92EF92FF920F931F93CF938F
:10167000DF93CDB7DEB7CA1BDB0B0FB6F894DEBF26
:101680000FBECDBF09942A88398848885F846E844C
:101690007D848C849B84AA84B984C884DF80EE8096
:1016A000FD800C811B81AA81B981CE0FD11D0FB69F
:1016B000F894DEBF0FBECDBFED010895F894FFCFC3
:1016C0000101010101FFFFFFFF00009801800053AD
:1016D000200000003F200000008883C6A1868EC243
:1016E00089CFE18AC7EAC8C08C98AF9287C1C1D5BB
:1016F0008991A4C0F9A4B0999282F88090F1F2F493
:10170000F854522530326400504C41590050415534
:101710005300494E495400525041550052504C59C3
:1017200000524E58540052505256005025303364E7
:101730000053465744005342574400542530326406
:0817400000464600525700006C
:00000001FF
